{"abi":[{"type":"function","name":"createProduct","inputs":[{"name":"_productId","type":"uint256","internalType":"uint256"},{"name":"_locationInfo","type":"string","internalType":"string"},{"name":"_productionDate","type":"uint256","internalType":"uint256"},{"name":"_expirationDate","type":"uint256","internalType":"uint256"}],"outputs":[],"stateMutability":"nonpayable"},{"type":"function","name":"deleteProduct","inputs":[{"name":"_productId","type":"uint256","internalType":"uint256"}],"outputs":[],"stateMutability":"nonpayable"},{"type":"function","name":"delivered","inputs":[{"name":"_productId","type":"uint256","internalType":"uint256"}],"outputs":[],"stateMutability":"nonpayable"},{"type":"function","name":"inWarehouse","inputs":[{"name":"_productId","type":"uint256","internalType":"uint256"},{"name":"_newLocation","type":"string","internalType":"string"}],"outputs":[],"stateMutability":"nonpayable"},{"type":"function","name":"products","inputs":[{"name":"","type":"uint256","internalType":"uint256"}],"outputs":[{"name":"id","type":"uint256","internalType":"uint256"},{"name":"locationInfo","type":"string","internalType":"string"},{"name":"productionDate","type":"uint256","internalType":"uint256"},{"name":"expirationDate","type":"uint256","internalType":"uint256"},{"name":"state","type":"uint8","internalType":"enum SupplyChain.State"}],"stateMutability":"view"},{"type":"function","name":"updateProduct","inputs":[{"name":"_productId","type":"uint256","internalType":"uint256"},{"name":"_newLocationInfo","type":"string","internalType":"string"},{"name":"_newProductionDate","type":"uint256","internalType":"uint256"},{"name":"_newExpirationDate","type":"uint256","internalType":"uint256"},{"name":"_newState","type":"uint8","internalType":"enum SupplyChain.State"}],"outputs":[],"stateMutability":"nonpayable"},{"type":"function","name":"viewProductInfo","inputs":[{"name":"_productId","type":"uint256","internalType":"uint256"}],"outputs":[{"name":"","type":"uint256","internalType":"uint256"},{"name":"","type":"string","internalType":"string"},{"name":"","type":"uint256","internalType":"uint256"},{"name":"","type":"uint256","internalType":"uint256"},{"name":"","type":"uint8","internalType":"enum SupplyChain.State"}],"stateMutability":"view"},{"type":"event","name":"ProductCreated","inputs":[{"name":"productId","type":"uint256","indexed":true,"internalType":"uint256"},{"name":"locationInfo","type":"string","indexed":false,"internalType":"string"},{"name":"productionDate","type":"uint256","indexed":false,"internalType":"uint256"},{"name":"expirationDate","type":"uint256","indexed":false,"internalType":"uint256"}],"anonymous":false},{"type":"event","name":"ProductDeleted","inputs":[{"name":"productId","type":"uint256","indexed":true,"internalType":"uint256"}],"anonymous":false},{"type":"event","name":"ProductStateChanged","inputs":[{"name":"productId","type":"uint256","indexed":true,"internalType":"uint256"},{"name":"newState","type":"uint8","indexed":false,"internalType":"enum SupplyChain.State"},{"name":"newLocation","type":"string","indexed":false,"internalType":"string"}],"anonymous":false},{"type":"event","name":"ProductUpdated","inputs":[{"name":"productId","type":"uint256","indexed":true,"internalType":"uint256"},{"name":"locationInfo","type":"string","indexed":false,"internalType":"string"},{"name":"productionDate","type":"uint256","indexed":false,"internalType":"uint256"},{"name":"expirationDate","type":"uint256","indexed":false,"internalType":"uint256"},{"name":"state","type":"uint8","indexed":false,"internalType":"enum SupplyChain.State"}],"anonymous":false}],"bytecode":{"object":"0x6080604052348015600f57600080fd5b50610df98061001f6000396000f3fe608060405234801561001057600080fd5b506004361061007d5760003560e01c8063cac1d47e1161005b578063cac1d47e146100d7578063ed90c7b7146100ea578063f32abd39146100fd578063f4a44d2d1461011057600080fd5b80634b5e4108146100825780637acc0b2014610097578063ade1f111146100c4575b600080fd5b610095610090366004610854565b610123565b005b6100aa6100a5366004610854565b610249565b6040516100bb9594939291906108eb565b60405180910390f35b6100956100d23660046109ce565b610305565b6100956100e5366004610a41565b6103f7565b6100956100f8366004610854565b610522565b6100aa61010b366004610854565b6105c2565b61009561011e366004610a88565b61069b565b801580159061013f575060008181526020819052604090205481145b6101645760405162461bcd60e51b815260040161015b90610adf565b60405180910390fd5b60008181526020819052604090206001600482015460ff16600281111561018d5761018d6108b3565b146101f55760405162461bcd60e51b815260206004820152603260248201527f50726f64756374206d75737420626520696e2057617265686f757365207374616044820152711d19481d1bc818994819195b1a5d995c995960721b606482015260840161015b565b60048101805460ff1916600290811790915560405183917fd18c1fbf4b2cac2c6110b1c857bc62712c1783006d8e242426bf5b3203e6a04e9161023d91906001860190610b49565b60405180910390a25050565b6000602081905290815260409020805460018201805491929161026b90610b0f565b80601f016020809104026020016040519081016040528092919081815260200182805461029790610b0f565b80156102e45780601f106102b9576101008083540402835291602001916102e4565b820191906000526020600020905b8154815290600101906020018083116102c757829003601f168201915b50505050600283015460038401546004909401549293909290915060ff1685565b8415801590610321575060008581526020819052604090205485145b61033d5760405162461bcd60e51b815260040161015b90610adf565b8183111561035d5760405162461bcd60e51b815260040161015b90610be3565b6000858152602081905260409020600181016103798682610c80565b50600280820185905560038201849055600482018054849260ff199091169060019084908111156103ac576103ac6108b3565b0217905550857fd7ed542f2f0a8f36b4a3a29e67d63d4722fa177fa979e8c5f5e3a1fbcf1ef7c7868686866040516103e79493929190610d3f565b60405180910390a2505050505050565b8115801590610413575060008281526020819052604090205482145b61042f5760405162461bcd60e51b815260040161015b90610adf565b600082815260208190526040812090600482015460ff166002811115610457576104576108b3565b146104c35760405162461bcd60e51b815260206004820152603660248201527f50726f64756374206d75737420626520696e2050726f647563656420737461746044820152756520746f206d6f766520746f2077617265686f75736560501b606482015260840161015b565b60048101805460ff1916600190811790915581016104e18382610c80565b50827fd18c1fbf4b2cac2c6110b1c857bc62712c1783006d8e242426bf5b3203e6a04e600184604051610515929190610d76565b60405180910390a2505050565b801580159061053e575060008181526020819052604090205481145b61055a5760405162461bcd60e51b815260040161015b90610adf565b60008181526020819052604081208181559061057960018301826107fe565b50600060028201819055600382018190556004909101805460ff1916905560405182917fc341cf326465fe622f86c468249e8c0cb03ed23ba376a6a34863a1374ac7d76991a250565b60008181526020819052604081208054600282015460038301546004840154600185018054606096889687968796929591949390929160ff1690849061060790610b0f565b80601f016020809104026020016040519081016040528092919081815260200182805461063390610b0f565b80156106805780601f1061065557610100808354040283529160200191610680565b820191906000526020600020905b81548152906001019060200180831161066357829003601f168201915b50505050509350955095509550955095505091939590929450565b808211156106bb5760405162461bcd60e51b815260040161015b90610be3565b600084815260208190526040902054156107175760405162461bcd60e51b815260206004820152601960248201527f50726f6475637420494420616c72656164792065786973747300000000000000604482015260640161015b565b6040518060a001604052808581526020018481526020018381526020018281526020016000600281111561074d5761074d6108b3565b9052600085815260208181526040909120825181559082015160018201906107759082610c80565b50604082015181600201556060820151816003015560808201518160040160006101000a81548160ff021916908360028111156107b4576107b46108b3565b0217905550905050837f8d3d82130aebba03bb48b5d158bc2bbb4647856765b1089e7250507307965af98484846040516107f093929190610d9e565b60405180910390a250505050565b50805461080a90610b0f565b6000825580601f1061081a575050565b601f016020900490600052602060002090810190610838919061083b565b50565b5b80821115610850576000815560010161083c565b5090565b60006020828403121561086657600080fd5b5035919050565b6000815180845260005b8181101561089357602081850181015186830182015201610877565b506000602082860101526020601f19601f83011685010191505092915050565b634e487b7160e01b600052602160045260246000fd5b600381106108e757634e487b7160e01b600052602160045260246000fd5b9052565b85815260a06020820152600061090460a083018761086d565b905084604083015283606083015261091f60808301846108c9565b9695505050505050565b634e487b7160e01b600052604160045260246000fd5b600082601f83011261095057600080fd5b813567ffffffffffffffff81111561096a5761096a610929565b604051601f8201601f19908116603f0116810167ffffffffffffffff8111828210171561099957610999610929565b6040528181528382016020018510156109b157600080fd5b816020850160208301376000918101602001919091529392505050565b600080600080600060a086880312156109e657600080fd5b85359450602086013567ffffffffffffffff811115610a0457600080fd5b610a108882890161093f565b9450506040860135925060608601359150608086013560038110610a3357600080fd5b809150509295509295909350565b60008060408385031215610a5457600080fd5b82359150602083013567ffffffffffffffff811115610a7257600080fd5b610a7e8582860161093f565b9150509250929050565b60008060008060808587031215610a9e57600080fd5b84359350602085013567ffffffffffffffff811115610abc57600080fd5b610ac88782880161093f565b949794965050505060408301359260600135919050565b602080825260169082015275141c9bd91d58dd08191bd95cc81b9bdd08195e1a5cdd60521b604082015260600190565b600181811c90821680610b2357607f821691505b602082108103610b4357634e487b7160e01b600052602260045260246000fd5b50919050565b610b5381846108c9565b604060208201526000808354610b6881610b0f565b8060408601526001821660008114610b875760018114610ba357610bd7565b60ff1983166060870152606082151560051b8701019350610bd7565b86600052602060002060005b83811015610bce57815488820160600152600190910190602001610baf565b87016060019450505b50919695505050505050565b6020808252602e908201527f50726f64756374696f6e2064617465206d757374206265206265666f7265206560408201526d787069726174696f6e206461746560901b606082015260800190565b601f821115610c7b57806000526020600020601f840160051c81016020851015610c585750805b601f840160051c820191505b81811015610c785760008155600101610c64565b50505b505050565b815167ffffffffffffffff811115610c9a57610c9a610929565b610cae81610ca88454610b0f565b84610c31565b6020601f821160018114610ce25760008315610cca5750848201515b600019600385901b1c1916600184901b178455610c78565b600084815260208120601f198516915b82811015610d125787850151825560209485019460019092019101610cf2565b5084821015610d305786840151600019600387901b60f8161c191681555b50505050600190811b01905550565b608081526000610d52608083018761086d565b9050846020830152836040830152610d6d60608301846108c9565b95945050505050565b610d8081846108c9565b604060208201526000610d96604083018461086d565b949350505050565b606081526000610db1606083018661086d565b6020830194909452506040015291905056fea26469706673582212206bfffbb00cfec983faf2a2b61dfe0c78cce9b4c61cb259bb6b2349ac7cee2ed364736f6c634300081a0033","linkReferences":{}},"methodIdentifiers":{"createProduct(uint256,string,uint256,uint256)":"f4a44d2d","deleteProduct(uint256)":"ed90c7b7","delivered(uint256)":"4b5e4108","inWarehouse(uint256,string)":"cac1d47e","products(uint256)":"7acc0b20","updateProduct(uint256,string,uint256,uint256,uint8)":"ade1f111","viewProductInfo(uint256)":"f32abd39"},"id":20}